{
  "_format": "hh-sol-artifact-1",
  "contractName": "AccetSBT",
  "sourceName": "contracts/AccetCompliance.sol",
  "abi": [
    {
      "inputs": [
        {
          "internalType": "address",
          "name": "registryAddress",
          "type": "address"
        }
      ],
      "stateMutability": "nonpayable",
      "type": "constructor"
    },
    {
      "anonymous": false,
      "inputs": [
        {
          "indexed": true,
          "internalType": "address",
          "name": "owner",
          "type": "address"
        },
        {
          "indexed": true,
          "internalType": "address",
          "name": "approved",
          "type": "address"
        },
        {
          "indexed": true,
          "internalType": "uint256",
          "name": "tokenId",
          "type": "uint256"
        }
      ],
      "name": "Approval",
      "type": "event"
    },
    {
      "anonymous": false,
      "inputs": [
        {
          "indexed": true,
          "internalType": "address",
          "name": "owner",
          "type": "address"
        },
        {
          "indexed": true,
          "internalType": "address",
          "name": "operator",
          "type": "address"
        },
        {
          "indexed": false,
          "internalType": "bool",
          "name": "approved",
          "type": "bool"
        }
      ],
      "name": "ApprovalForAll",
      "type": "event"
    },
    {
      "anonymous": false,
      "inputs": [
        {
          "indexed": true,
          "internalType": "address",
          "name": "to",
          "type": "address"
        },
        {
          "indexed": true,
          "internalType": "uint256",
          "name": "tokenId",
          "type": "uint256"
        },
        {
          "indexed": false,
          "internalType": "string",
          "name": "tokenURI",
          "type": "string"
        }
      ],
      "name": "MintSBT",
      "type": "event"
    },
    {
      "anonymous": false,
      "inputs": [
        {
          "indexed": true,
          "internalType": "address",
          "name": "previousOwner",
          "type": "address"
        },
        {
          "indexed": true,
          "internalType": "address",
          "name": "newOwner",
          "type": "address"
        }
      ],
      "name": "OwnershipTransferred",
      "type": "event"
    },
    {
      "anonymous": false,
      "inputs": [
        {
          "indexed": true,
          "internalType": "address",
          "name": "from",
          "type": "address"
        },
        {
          "indexed": true,
          "internalType": "address",
          "name": "to",
          "type": "address"
        },
        {
          "indexed": true,
          "internalType": "uint256",
          "name": "tokenId",
          "type": "uint256"
        }
      ],
      "name": "Transfer",
      "type": "event"
    },
    {
      "inputs": [
        {
          "internalType": "address",
          "name": "to",
          "type": "address"
        },
        {
          "internalType": "uint256",
          "name": "tokenId",
          "type": "uint256"
        }
      ],
      "name": "approve",
      "outputs": [],
      "stateMutability": "nonpayable",
      "type": "function"
    },
    {
      "inputs": [
        {
          "internalType": "address",
          "name": "owner",
          "type": "address"
        }
      ],
      "name": "balanceOf",
      "outputs": [
        {
          "internalType": "uint256",
          "name": "",
          "type": "uint256"
        }
      ],
      "stateMutability": "view",
      "type": "function"
    },
    {
      "inputs": [
        {
          "internalType": "uint256",
          "name": "tokenId",
          "type": "uint256"
        }
      ],
      "name": "burn",
      "outputs": [],
      "stateMutability": "nonpayable",
      "type": "function"
    },
    {
      "inputs": [
        {
          "internalType": "uint256",
          "name": "tokenId",
          "type": "uint256"
        }
      ],
      "name": "getApproved",
      "outputs": [
        {
          "internalType": "address",
          "name": "",
          "type": "address"
        }
      ],
      "stateMutability": "view",
      "type": "function"
    },
    {
      "inputs": [
        {
          "internalType": "address",
          "name": "owner",
          "type": "address"
        },
        {
          "internalType": "address",
          "name": "operator",
          "type": "address"
        }
      ],
      "name": "isApprovedForAll",
      "outputs": [
        {
          "internalType": "bool",
          "name": "",
          "type": "bool"
        }
      ],
      "stateMutability": "view",
      "type": "function"
    },
    {
      "inputs": [
        {
          "internalType": "address",
          "name": "to",
          "type": "address"
        },
        {
          "internalType": "string",
          "name": "tokenURI_",
          "type": "string"
        }
      ],
      "name": "mintTo",
      "outputs": [
        {
          "internalType": "uint256",
          "name": "",
          "type": "uint256"
        }
      ],
      "stateMutability": "nonpayable",
      "type": "function"
    },
    {
      "inputs": [],
      "name": "name",
      "outputs": [
        {
          "internalType": "string",
          "name": "",
          "type": "string"
        }
      ],
      "stateMutability": "view",
      "type": "function"
    },
    {
      "inputs": [],
      "name": "owner",
      "outputs": [
        {
          "internalType": "address",
          "name": "",
          "type": "address"
        }
      ],
      "stateMutability": "view",
      "type": "function"
    },
    {
      "inputs": [
        {
          "internalType": "uint256",
          "name": "tokenId",
          "type": "uint256"
        }
      ],
      "name": "ownerOf",
      "outputs": [
        {
          "internalType": "address",
          "name": "",
          "type": "address"
        }
      ],
      "stateMutability": "view",
      "type": "function"
    },
    {
      "inputs": [],
      "name": "registry",
      "outputs": [
        {
          "internalType": "contract ComplianceRegistry",
          "name": "",
          "type": "address"
        }
      ],
      "stateMutability": "view",
      "type": "function"
    },
    {
      "inputs": [],
      "name": "renounceOwnership",
      "outputs": [],
      "stateMutability": "nonpayable",
      "type": "function"
    },
    {
      "inputs": [
        {
          "internalType": "address",
          "name": "from",
          "type": "address"
        },
        {
          "internalType": "address",
          "name": "to",
          "type": "address"
        },
        {
          "internalType": "uint256",
          "name": "tokenId",
          "type": "uint256"
        }
      ],
      "name": "safeTransferFrom",
      "outputs": [],
      "stateMutability": "nonpayable",
      "type": "function"
    },
    {
      "inputs": [
        {
          "internalType": "address",
          "name": "from",
          "type": "address"
        },
        {
          "internalType": "address",
          "name": "to",
          "type": "address"
        },
        {
          "internalType": "uint256",
          "name": "tokenId",
          "type": "uint256"
        },
        {
          "internalType": "bytes",
          "name": "data",
          "type": "bytes"
        }
      ],
      "name": "safeTransferFrom",
      "outputs": [],
      "stateMutability": "nonpayable",
      "type": "function"
    },
    {
      "inputs": [
        {
          "internalType": "address",
          "name": "operator",
          "type": "address"
        },
        {
          "internalType": "bool",
          "name": "approved",
          "type": "bool"
        }
      ],
      "name": "setApprovalForAll",
      "outputs": [],
      "stateMutability": "nonpayable",
      "type": "function"
    },
    {
      "inputs": [
        {
          "internalType": "bytes4",
          "name": "interfaceId",
          "type": "bytes4"
        }
      ],
      "name": "supportsInterface",
      "outputs": [
        {
          "internalType": "bool",
          "name": "",
          "type": "bool"
        }
      ],
      "stateMutability": "view",
      "type": "function"
    },
    {
      "inputs": [],
      "name": "symbol",
      "outputs": [
        {
          "internalType": "string",
          "name": "",
          "type": "string"
        }
      ],
      "stateMutability": "view",
      "type": "function"
    },
    {
      "inputs": [
        {
          "internalType": "uint256",
          "name": "tokenId",
          "type": "uint256"
        }
      ],
      "name": "tokenURI",
      "outputs": [
        {
          "internalType": "string",
          "name": "",
          "type": "string"
        }
      ],
      "stateMutability": "view",
      "type": "function"
    },
    {
      "inputs": [
        {
          "internalType": "address",
          "name": "from",
          "type": "address"
        },
        {
          "internalType": "address",
          "name": "to",
          "type": "address"
        },
        {
          "internalType": "uint256",
          "name": "tokenId",
          "type": "uint256"
        }
      ],
      "name": "transferFrom",
      "outputs": [],
      "stateMutability": "nonpayable",
      "type": "function"
    },
    {
      "inputs": [
        {
          "internalType": "address",
          "name": "newOwner",
          "type": "address"
        }
      ],
      "name": "transferOwnership",
      "outputs": [],
      "stateMutability": "nonpayable",
      "type": "function"
    }
  ],
  "bytecode": "0x60806040523480156200001157600080fd5b50604051620035a8380380620035a8833981810160405281019062000037919062000271565b6040518060400160405280600981526020017f41434345542053425400000000000000000000000000000000000000000000008152506040518060400160405280600481526020017f41534254000000000000000000000000000000000000000000000000000000008152508160009081620000b491906200051d565b508060019081620000c691906200051d565b505050620000e9620000dd6200013960201b60201c565b6200014160201b60201c565b80600860006101000a81548173ffffffffffffffffffffffffffffffffffffffff021916908373ffffffffffffffffffffffffffffffffffffffff16021790555060016007819055505062000604565b600033905090565b6000600660009054906101000a900473ffffffffffffffffffffffffffffffffffffffff16905081600660006101000a81548173ffffffffffffffffffffffffffffffffffffffff021916908373ffffffffffffffffffffffffffffffffffffffff1602179055508173ffffffffffffffffffffffffffffffffffffffff168173ffffffffffffffffffffffffffffffffffffffff167f8be0079c531659141344cd1fd0a4f28419497f9722a3daafe3b4186f6b6457e060405160405180910390a35050565b600080fd5b600073ffffffffffffffffffffffffffffffffffffffff82169050919050565b600062000239826200020c565b9050919050565b6200024b816200022c565b81146200025757600080fd5b50565b6000815190506200026b8162000240565b92915050565b6000602082840312156200028a576200028962000207565b5b60006200029a848285016200025a565b91505092915050565b600081519050919050565b7f4e487b7100000000000000000000000000000000000000000000000000000000600052604160045260246000fd5b7f4e487b7100000000000000000000000000000000000000000000000000000000600052602260045260246000fd5b600060028204905060018216806200032557607f821691505b6020821081036200033b576200033a620002dd565b5b50919050565b60008190508160005260206000209050919050565b60006020601f8301049050919050565b600082821b905092915050565b600060088302620003a57fffffffffffffffffffffffffffffffffffffffffffffffffffffffffffffffff8262000366565b620003b1868362000366565b95508019841693508086168417925050509392505050565b6000819050919050565b6000819050919050565b6000620003fe620003f8620003f284620003c9565b620003d3565b620003c9565b9050919050565b6000819050919050565b6200041a83620003dd565b62000432620004298262000405565b84845462000373565b825550505050565b600090565b620004496200043a565b620004568184846200040f565b505050565b5b818110156200047e57620004726000826200043f565b6001810190506200045c565b5050565b601f821115620004cd57620004978162000341565b620004a28462000356565b81016020851015620004b2578190505b620004ca620004c18562000356565b8301826200045b565b50505b505050565b600082821c905092915050565b6000620004f260001984600802620004d2565b1980831691505092915050565b60006200050d8383620004df565b9150826002028217905092915050565b6200052882620002a3565b67ffffffffffffffff811115620005445762000543620002ae565b5b6200055082546200030c565b6200055d82828562000482565b600060209050601f83116001811462000595576000841562000580578287015190505b6200058c8582620004ff565b865550620005fc565b601f198416620005a58662000341565b60005b82811015620005cf57848901518255600182019150602085019450602081019050620005a8565b86831015620005ef5784890151620005eb601f891682620004df565b8355505b6001600288020188555050505b505050505050565b612f9480620006146000396000f3fe608060405234801561001057600080fd5b50600436106101205760003560e01c806370a08231116100ad578063a22cb46511610071578063a22cb46514610307578063b88d4fde14610323578063c87b56dd1461033f578063e985e9c51461036f578063f2fde38b1461039f57610120565b806370a0823114610273578063715018a6146102a35780637b103999146102ad5780638da5cb5b146102cb57806395d89b41146102e957610120565b8063095ea7b3116100f4578063095ea7b3146101d357806323b872dd146101ef57806342842e0e1461020b57806342966c68146102275780636352211e1461024357610120565b806275a3171461012557806301ffc9a71461015557806306fdde0314610185578063081812fc146101a3575b600080fd5b61013f600480360381019061013a9190611ccd565b6103bb565b60405161014c9190611d46565b60405180910390f35b61016f600480360381019061016a9190611db9565b61054a565b60405161017c9190611e01565b60405180910390f35b61018d61062c565b60405161019a9190611eac565b60405180910390f35b6101bd60048036038101906101b89190611efa565b6106be565b6040516101ca9190611f36565b60405180910390f35b6101ed60048036038101906101e89190611f51565b610704565b005b61020960048036038101906102049190611f91565b61081b565b005b61022560048036038101906102209190611f91565b61087b565b005b610241600480360381019061023c9190611efa565b61089b565b005b61025d60048036038101906102589190611efa565b6108af565b60405161026a9190611f36565b60405180910390f35b61028d60048036038101906102889190611fe4565b610935565b60405161029a9190611d46565b60405180910390f35b6102ab6109ec565b005b6102b5610a00565b6040516102c29190612070565b60405180910390f35b6102d3610a26565b6040516102e09190611f36565b60405180910390f35b6102f1610a50565b6040516102fe9190611eac565b60405180910390f35b610321600480360381019061031c91906120b7565b610ae2565b005b61033d60048036038101906103389190612227565b610af8565b005b61035960048036038101906103549190611efa565b610b5a565b6040516103669190611eac565b60405180910390f35b610389600480360381019061038491906122aa565b610bff565b6040516103969190611e01565b60405180910390f35b6103b960048036038101906103b49190611fe4565b610c93565b005b60006103c5610d16565b6000600860009054906101000a900473ffffffffffffffffffffffffffffffffffffffff1673ffffffffffffffffffffffffffffffffffffffff1663b9209e33866040518263ffffffff1660e01b81526004016104229190611f36565b602060405180830381865afa15801561043f573d6000803e3d6000fd5b505050506040513d601f19601f8201168201806040525081019061046391906122ff565b9050806104a5576040517f08c379a000000000000000000000000000000000000000000000000000000000815260040161049c9061239e565b60405180910390fd5b6000600760008154809291906104ba906123ed565b9190505590506104ca8682610d94565b84846009600084815260200190815260200160002091826104ec929190612642565b50808673ffffffffffffffffffffffffffffffffffffffff167f408e6700c8c8bf1093a9f3dad1e45f50c0ef36787da829f31d76ad2861ad0512878760405161053692919061273f565b60405180910390a380925050509392505050565b60007f80ac58cd000000000000000000000000000000000000000000000000000000007bffffffffffffffffffffffffffffffffffffffffffffffffffffffff1916827bffffffffffffffffffffffffffffffffffffffffffffffffffffffff1916148061061557507f5b5e139f000000000000000000000000000000000000000000000000000000007bffffffffffffffffffffffffffffffffffffffffffffffffffffffff1916827bffffffffffffffffffffffffffffffffffffffffffffffffffffffff1916145b80610625575061062482610db2565b5b9050919050565b60606000805461063b9061246f565b80601f01602080910402602001604051908101604052809291908181526020018280546106679061246f565b80156106b45780601f10610689576101008083540402835291602001916106b4565b820191906000526020600020905b81548152906001019060200180831161069757829003601f168201915b5050505050905090565b60006106c982610e1c565b6004600083815260200190815260200160002060009054906101000a900473ffffffffffffffffffffffffffffffffffffffff169050919050565b600061070f826108af565b90508073ffffffffffffffffffffffffffffffffffffffff168373ffffffffffffffffffffffffffffffffffffffff160361077f576040517f08c379a0000000000000000000000000000000000000000000000000000000008152600401610776906127d5565b60405180910390fd5b8073ffffffffffffffffffffffffffffffffffffffff1661079e610e67565b73ffffffffffffffffffffffffffffffffffffffff1614806107cd57506107cc816107c7610e67565b610bff565b5b61080c576040517f08c379a000000000000000000000000000000000000000000000000000000000815260040161080390612867565b60405180910390fd5b6108168383610e6f565b505050565b61082c610826610e67565b82610f28565b61086b576040517f08c379a0000000000000000000000000000000000000000000000000000000008152600401610862906128f9565b60405180910390fd5b610876838383610fbd565b505050565b61089683838360405180602001604052806000815250610af8565b505050565b6108a3610d16565b6108ac816112b6565b50565b6000806108bb83611404565b9050600073ffffffffffffffffffffffffffffffffffffffff168173ffffffffffffffffffffffffffffffffffffffff160361092c576040517f08c379a000000000000000000000000000000000000000000000000000000000815260040161092390612965565b60405180910390fd5b80915050919050565b60008073ffffffffffffffffffffffffffffffffffffffff168273ffffffffffffffffffffffffffffffffffffffff16036109a5576040517f08c379a000000000000000000000000000000000000000000000000000000000815260040161099c906129f7565b60405180910390fd5b600360008373ffffffffffffffffffffffffffffffffffffffff1673ffffffffffffffffffffffffffffffffffffffff168152602001908152602001600020549050919050565b6109f4610d16565b6109fe6000611441565b565b600860009054906101000a900473ffffffffffffffffffffffffffffffffffffffff1681565b6000600660009054906101000a900473ffffffffffffffffffffffffffffffffffffffff16905090565b606060018054610a5f9061246f565b80601f0160208091040260200160405190810160405280929190818152602001828054610a8b9061246f565b8015610ad85780601f10610aad57610100808354040283529160200191610ad8565b820191906000526020600020905b815481529060010190602001808311610abb57829003601f168201915b5050505050905090565b610af4610aed610e67565b8383611507565b5050565b610b09610b03610e67565b83610f28565b610b48576040517f08c379a0000000000000000000000000000000000000000000000000000000008152600401610b3f906128f9565b60405180910390fd5b610b5484848484611673565b50505050565b6060600960008381526020019081526020016000208054610b7a9061246f565b80601f0160208091040260200160405190810160405280929190818152602001828054610ba69061246f565b8015610bf35780601f10610bc857610100808354040283529160200191610bf3565b820191906000526020600020905b815481529060010190602001808311610bd657829003601f168201915b50505050509050919050565b6000600560008473ffffffffffffffffffffffffffffffffffffffff1673ffffffffffffffffffffffffffffffffffffffff16815260200190815260200160002060008373ffffffffffffffffffffffffffffffffffffffff1673ffffffffffffffffffffffffffffffffffffffff16815260200190815260200160002060009054906101000a900460ff16905092915050565b610c9b610d16565b600073ffffffffffffffffffffffffffffffffffffffff168173ffffffffffffffffffffffffffffffffffffffff1603610d0a576040517f08c379a0000000000000000000000000000000000000000000000000000000008152600401610d0190612a89565b60405180910390fd5b610d1381611441565b50565b610d1e610e67565b73ffffffffffffffffffffffffffffffffffffffff16610d3c610a26565b73ffffffffffffffffffffffffffffffffffffffff1614610d92576040517f08c379a0000000000000000000000000000000000000000000000000000000008152600401610d8990612af5565b60405180910390fd5b565b610dae8282604051806020016040528060008152506116cf565b5050565b60007f01ffc9a7000000000000000000000000000000000000000000000000000000007bffffffffffffffffffffffffffffffffffffffffffffffffffffffff1916827bffffffffffffffffffffffffffffffffffffffffffffffffffffffff1916149050919050565b610e258161172a565b610e64576040517f08c379a0000000000000000000000000000000000000000000000000000000008152600401610e5b90612965565b60405180910390fd5b50565b600033905090565b816004600083815260200190815260200160002060006101000a81548173ffffffffffffffffffffffffffffffffffffffff021916908373ffffffffffffffffffffffffffffffffffffffff160217905550808273ffffffffffffffffffffffffffffffffffffffff16610ee2836108af565b73ffffffffffffffffffffffffffffffffffffffff167f8c5be1e5ebec7d5bd14f71427d1e84f3dd0314c0f7b2291e5b200ac8c7c3b92560405160405180910390a45050565b600080610f34836108af565b90508073ffffffffffffffffffffffffffffffffffffffff168473ffffffffffffffffffffffffffffffffffffffff161480610f765750610f758185610bff565b5b80610fb457508373ffffffffffffffffffffffffffffffffffffffff16610f9c846106be565b73ffffffffffffffffffffffffffffffffffffffff16145b91505092915050565b8273ffffffffffffffffffffffffffffffffffffffff16610fdd826108af565b73ffffffffffffffffffffffffffffffffffffffff1614611033576040517f08c379a000000000000000000000000000000000000000000000000000000000815260040161102a90612b87565b60405180910390fd5b600073ffffffffffffffffffffffffffffffffffffffff168273ffffffffffffffffffffffffffffffffffffffff16036110a2576040517f08c379a000000000000000000000000000000000000000000000000000000000815260040161109990612c19565b60405180910390fd5b6110af838383600161176b565b8273ffffffffffffffffffffffffffffffffffffffff166110cf826108af565b73ffffffffffffffffffffffffffffffffffffffff1614611125576040517f08c379a000000000000000000000000000000000000000000000000000000000815260040161111c90612b87565b60405180910390fd5b6004600082815260200190815260200160002060006101000a81549073ffffffffffffffffffffffffffffffffffffffff02191690556001600360008573ffffffffffffffffffffffffffffffffffffffff1673ffffffffffffffffffffffffffffffffffffffff168152602001908152602001600020600082825403925050819055506001600360008473ffffffffffffffffffffffffffffffffffffffff1673ffffffffffffffffffffffffffffffffffffffff16815260200190815260200160002060008282540192505081905550816002600083815260200190815260200160002060006101000a81548173ffffffffffffffffffffffffffffffffffffffff021916908373ffffffffffffffffffffffffffffffffffffffff160217905550808273ffffffffffffffffffffffffffffffffffffffff168473ffffffffffffffffffffffffffffffffffffffff167fddf252ad1be2c89b69c2b068fc378daa952ba7f163c4a11628f55a4df523b3ef60405160405180910390a46112b18383836001611823565b505050565b60006112c1826108af565b90506112d181600084600161176b565b6112da826108af565b90506004600083815260200190815260200160002060006101000a81549073ffffffffffffffffffffffffffffffffffffffff02191690556001600360008373ffffffffffffffffffffffffffffffffffffffff1673ffffffffffffffffffffffffffffffffffffffff168152602001908152602001600020600082825403925050819055506002600083815260200190815260200160002060006101000a81549073ffffffffffffffffffffffffffffffffffffffff021916905581600073ffffffffffffffffffffffffffffffffffffffff168273ffffffffffffffffffffffffffffffffffffffff167fddf252ad1be2c89b69c2b068fc378daa952ba7f163c4a11628f55a4df523b3ef60405160405180910390a4611400816000846001611823565b5050565b60006002600083815260200190815260200160002060009054906101000a900473ffffffffffffffffffffffffffffffffffffffff169050919050565b6000600660009054906101000a900473ffffffffffffffffffffffffffffffffffffffff16905081600660006101000a81548173ffffffffffffffffffffffffffffffffffffffff021916908373ffffffffffffffffffffffffffffffffffffffff1602179055508173ffffffffffffffffffffffffffffffffffffffff168173ffffffffffffffffffffffffffffffffffffffff167f8be0079c531659141344cd1fd0a4f28419497f9722a3daafe3b4186f6b6457e060405160405180910390a35050565b8173ffffffffffffffffffffffffffffffffffffffff168373ffffffffffffffffffffffffffffffffffffffff1603611575576040517f08c379a000000000000000000000000000000000000000000000000000000000815260040161156c90612c85565b60405180910390fd5b80600560008573ffffffffffffffffffffffffffffffffffffffff1673ffffffffffffffffffffffffffffffffffffffff16815260200190815260200160002060008473ffffffffffffffffffffffffffffffffffffffff1673ffffffffffffffffffffffffffffffffffffffff16815260200190815260200160002060006101000a81548160ff0219169083151502179055508173ffffffffffffffffffffffffffffffffffffffff168373ffffffffffffffffffffffffffffffffffffffff167f17307eab39ab6107e8899845ad3d59bd9653f200f220920489ca2b5937696c31836040516116669190611e01565b60405180910390a3505050565b61167e848484610fbd565b61168a84848484611829565b6116c9576040517f08c379a00000000000000000000000000000000000000000000000000000000081526004016116c090612d17565b60405180910390fd5b50505050565b6116d983836119b0565b6116e66000848484611829565b611725576040517f08c379a000000000000000000000000000000000000000000000000000000000815260040161171c90612d17565b60405180910390fd5b505050565b60008073ffffffffffffffffffffffffffffffffffffffff1661174c83611404565b73ffffffffffffffffffffffffffffffffffffffff1614159050919050565b600073ffffffffffffffffffffffffffffffffffffffff168473ffffffffffffffffffffffffffffffffffffffff1614806117d25750600073ffffffffffffffffffffffffffffffffffffffff168373ffffffffffffffffffffffffffffffffffffffff16145b611811576040517f08c379a000000000000000000000000000000000000000000000000000000000815260040161180890612d83565b60405180910390fd5b61181d84848484611bcd565b50505050565b50505050565b600061184a8473ffffffffffffffffffffffffffffffffffffffff16611bd3565b156119a3578373ffffffffffffffffffffffffffffffffffffffff1663150b7a02611873610e67565b8786866040518563ffffffff1660e01b81526004016118959493929190612df8565b6020604051808303816000875af19250505080156118d157506040513d601f19601f820116820180604052508101906118ce9190612e59565b60015b611953573d8060008114611901576040519150601f19603f3d011682016040523d82523d6000602084013e611906565b606091505b50600081510361194b576040517f08c379a000000000000000000000000000000000000000000000000000000000815260040161194290612d17565b60405180910390fd5b805181602001fd5b63150b7a0260e01b7bffffffffffffffffffffffffffffffffffffffffffffffffffffffff1916817bffffffffffffffffffffffffffffffffffffffffffffffffffffffff1916149150506119a8565b600190505b949350505050565b600073ffffffffffffffffffffffffffffffffffffffff168273ffffffffffffffffffffffffffffffffffffffff1603611a1f576040517f08c379a0000000000000000000000000000000000000000000000000000000008152600401611a1690612ed2565b60405180910390fd5b611a288161172a565b15611a68576040517f08c379a0000000000000000000000000000000000000000000000000000000008152600401611a5f90612f3e565b60405180910390fd5b611a7660008383600161176b565b611a7f8161172a565b15611abf576040517f08c379a0000000000000000000000000000000000000000000000000000000008152600401611ab690612f3e565b60405180910390fd5b6001600360008473ffffffffffffffffffffffffffffffffffffffff1673ffffffffffffffffffffffffffffffffffffffff16815260200190815260200160002060008282540192505081905550816002600083815260200190815260200160002060006101000a81548173ffffffffffffffffffffffffffffffffffffffff021916908373ffffffffffffffffffffffffffffffffffffffff160217905550808273ffffffffffffffffffffffffffffffffffffffff16600073ffffffffffffffffffffffffffffffffffffffff167fddf252ad1be2c89b69c2b068fc378daa952ba7f163c4a11628f55a4df523b3ef60405160405180910390a4611bc9600083836001611823565b5050565b50505050565b6000808273ffffffffffffffffffffffffffffffffffffffff163b119050919050565b6000604051905090565b600080fd5b600080fd5b600073ffffffffffffffffffffffffffffffffffffffff82169050919050565b6000611c3582611c0a565b9050919050565b611c4581611c2a565b8114611c5057600080fd5b50565b600081359050611c6281611c3c565b92915050565b600080fd5b600080fd5b600080fd5b60008083601f840112611c8d57611c8c611c68565b5b8235905067ffffffffffffffff811115611caa57611ca9611c6d565b5b602083019150836001820283011115611cc657611cc5611c72565b5b9250929050565b600080600060408486031215611ce657611ce5611c00565b5b6000611cf486828701611c53565b935050602084013567ffffffffffffffff811115611d1557611d14611c05565b5b611d2186828701611c77565b92509250509250925092565b6000819050919050565b611d4081611d2d565b82525050565b6000602082019050611d5b6000830184611d37565b92915050565b60007fffffffff0000000000000000000000000000000000000000000000000000000082169050919050565b611d9681611d61565b8114611da157600080fd5b50565b600081359050611db381611d8d565b92915050565b600060208284031215611dcf57611dce611c00565b5b6000611ddd84828501611da4565b91505092915050565b60008115159050919050565b611dfb81611de6565b82525050565b6000602082019050611e166000830184611df2565b92915050565b600081519050919050565b600082825260208201905092915050565b60005b83811015611e56578082015181840152602081019050611e3b565b60008484015250505050565b6000601f19601f8301169050919050565b6000611e7e82611e1c565b611e888185611e27565b9350611e98818560208601611e38565b611ea181611e62565b840191505092915050565b60006020820190508181036000830152611ec68184611e73565b905092915050565b611ed781611d2d565b8114611ee257600080fd5b50565b600081359050611ef481611ece565b92915050565b600060208284031215611f1057611f0f611c00565b5b6000611f1e84828501611ee5565b91505092915050565b611f3081611c2a565b82525050565b6000602082019050611f4b6000830184611f27565b92915050565b60008060408385031215611f6857611f67611c00565b5b6000611f7685828601611c53565b9250506020611f8785828601611ee5565b9150509250929050565b600080600060608486031215611faa57611fa9611c00565b5b6000611fb886828701611c53565b9350506020611fc986828701611c53565b9250506040611fda86828701611ee5565b9150509250925092565b600060208284031215611ffa57611ff9611c00565b5b600061200884828501611c53565b91505092915050565b6000819050919050565b600061203661203161202c84611c0a565b612011565b611c0a565b9050919050565b60006120488261201b565b9050919050565b600061205a8261203d565b9050919050565b61206a8161204f565b82525050565b60006020820190506120856000830184612061565b92915050565b61209481611de6565b811461209f57600080fd5b50565b6000813590506120b18161208b565b92915050565b600080604083850312156120ce576120cd611c00565b5b60006120dc85828601611c53565b92505060206120ed858286016120a2565b9150509250929050565b600080fd5b7f4e487b7100000000000000000000000000000000000000000000000000000000600052604160045260246000fd5b61213482611e62565b810181811067ffffffffffffffff82111715612153576121526120fc565b5b80604052505050565b6000612166611bf6565b9050612172828261212b565b919050565b600067ffffffffffffffff821115612192576121916120fc565b5b61219b82611e62565b9050602081019050919050565b82818337600083830152505050565b60006121ca6121c584612177565b61215c565b9050828152602081018484840111156121e6576121e56120f7565b5b6121f18482856121a8565b509392505050565b600082601f83011261220e5761220d611c68565b5b813561221e8482602086016121b7565b91505092915050565b6000806000806080858703121561224157612240611c00565b5b600061224f87828801611c53565b945050602061226087828801611c53565b935050604061227187828801611ee5565b925050606085013567ffffffffffffffff81111561229257612291611c05565b5b61229e878288016121f9565b91505092959194509250565b600080604083850312156122c1576122c0611c00565b5b60006122cf85828601611c53565b92505060206122e085828601611c53565b9150509250929050565b6000815190506122f98161208b565b92915050565b60006020828403121561231557612314611c00565b5b6000612323848285016122ea565b91505092915050565b7f526563697069656e74206e6f7420636f6d706c69616e63652d7665726966696560008201527f6400000000000000000000000000000000000000000000000000000000000000602082015250565b6000612388602183611e27565b91506123938261232c565b604082019050919050565b600060208201905081810360008301526123b78161237b565b9050919050565b7f4e487b7100000000000000000000000000000000000000000000000000000000600052601160045260246000fd5b60006123f882611d2d565b91507fffffffffffffffffffffffffffffffffffffffffffffffffffffffffffffffff820361242a576124296123be565b5b600182019050919050565b600082905092915050565b7f4e487b7100000000000000000000000000000000000000000000000000000000600052602260045260246000fd5b6000600282049050600182168061248757607f821691505b60208210810361249a57612499612440565b5b50919050565b60008190508160005260206000209050919050565b60006020601f8301049050919050565b600082821b905092915050565b6000600883026125027fffffffffffffffffffffffffffffffffffffffffffffffffffffffffffffffff826124c5565b61250c86836124c5565b95508019841693508086168417925050509392505050565b600061253f61253a61253584611d2d565b612011565b611d2d565b9050919050565b6000819050919050565b61255983612524565b61256d61256582612546565b8484546124d2565b825550505050565b600090565b612582612575565b61258d818484612550565b505050565b5b818110156125b1576125a660008261257a565b600181019050612593565b5050565b601f8211156125f6576125c7816124a0565b6125d0846124b5565b810160208510156125df578190505b6125f36125eb856124b5565b830182612592565b50505b505050565b600082821c905092915050565b6000612619600019846008026125fb565b1980831691505092915050565b60006126328383612608565b9150826002028217905092915050565b61264c8383612435565b67ffffffffffffffff811115612665576126646120fc565b5b61266f825461246f565b61267a8282856125b5565b6000601f8311600181146126a95760008415612697578287013590505b6126a18582612626565b865550612709565b601f1984166126b7866124a0565b60005b828110156126df578489013582556001820191506020850194506020810190506126ba565b868310156126fc57848901356126f8601f891682612608565b8355505b6001600288020188555050505b50505050505050565b600061271e8385611e27565b935061272b8385846121a8565b61273483611e62565b840190509392505050565b6000602082019050818103600083015261275a818486612712565b90509392505050565b7f4552433732313a20617070726f76616c20746f2063757272656e74206f776e6560008201527f7200000000000000000000000000000000000000000000000000000000000000602082015250565b60006127bf602183611e27565b91506127ca82612763565b604082019050919050565b600060208201905081810360008301526127ee816127b2565b9050919050565b7f4552433732313a20617070726f76652063616c6c6572206973206e6f7420746f60008201527f6b656e206f776e6572206f7220617070726f76656420666f7220616c6c000000602082015250565b6000612851603d83611e27565b915061285c826127f5565b604082019050919050565b6000602082019050818103600083015261288081612844565b9050919050565b7f4552433732313a2063616c6c6572206973206e6f7420746f6b656e206f776e6560008201527f72206f7220617070726f76656400000000000000000000000000000000000000602082015250565b60006128e3602d83611e27565b91506128ee82612887565b604082019050919050565b60006020820190508181036000830152612912816128d6565b9050919050565b7f4552433732313a20696e76616c696420746f6b656e2049440000000000000000600082015250565b600061294f601883611e27565b915061295a82612919565b602082019050919050565b6000602082019050818103600083015261297e81612942565b9050919050565b7f4552433732313a2061646472657373207a65726f206973206e6f74206120766160008201527f6c6964206f776e65720000000000000000000000000000000000000000000000602082015250565b60006129e1602983611e27565b91506129ec82612985565b604082019050919050565b60006020820190508181036000830152612a10816129d4565b9050919050565b7f4f776e61626c653a206e6577206f776e657220697320746865207a65726f206160008201527f6464726573730000000000000000000000000000000000000000000000000000602082015250565b6000612a73602683611e27565b9150612a7e82612a17565b604082019050919050565b60006020820190508181036000830152612aa281612a66565b9050919050565b7f4f776e61626c653a2063616c6c6572206973206e6f7420746865206f776e6572600082015250565b6000612adf602083611e27565b9150612aea82612aa9565b602082019050919050565b60006020820190508181036000830152612b0e81612ad2565b9050919050565b7f4552433732313a207472616e736665722066726f6d20696e636f72726563742060008201527f6f776e6572000000000000000000000000000000000000000000000000000000602082015250565b6000612b71602583611e27565b9150612b7c82612b15565b604082019050919050565b60006020820190508181036000830152612ba081612b64565b9050919050565b7f4552433732313a207472616e7366657220746f20746865207a65726f2061646460008201527f7265737300000000000000000000000000000000000000000000000000000000602082015250565b6000612c03602483611e27565b9150612c0e82612ba7565b604082019050919050565b60006020820190508181036000830152612c3281612bf6565b9050919050565b7f4552433732313a20617070726f766520746f2063616c6c657200000000000000600082015250565b6000612c6f601983611e27565b9150612c7a82612c39565b602082019050919050565b60006020820190508181036000830152612c9e81612c62565b9050919050565b7f4552433732313a207472616e7366657220746f206e6f6e20455243373231526560008201527f63656976657220696d706c656d656e7465720000000000000000000000000000602082015250565b6000612d01603283611e27565b9150612d0c82612ca5565b604082019050919050565b60006020820190508181036000830152612d3081612cf4565b9050919050565b7f5342543a207472616e736665722064697361626c656400000000000000000000600082015250565b6000612d6d601683611e27565b9150612d7882612d37565b602082019050919050565b60006020820190508181036000830152612d9c81612d60565b9050919050565b600081519050919050565b600082825260208201905092915050565b6000612dca82612da3565b612dd48185612dae565b9350612de4818560208601611e38565b612ded81611e62565b840191505092915050565b6000608082019050612e0d6000830187611f27565b612e1a6020830186611f27565b612e276040830185611d37565b8181036060830152612e398184612dbf565b905095945050505050565b600081519050612e5381611d8d565b92915050565b600060208284031215612e6f57612e6e611c00565b5b6000612e7d84828501612e44565b91505092915050565b7f4552433732313a206d696e7420746f20746865207a65726f2061646472657373600082015250565b6000612ebc602083611e27565b9150612ec782612e86565b602082019050919050565b60006020820190508181036000830152612eeb81612eaf565b9050919050565b7f4552433732313a20746f6b656e20616c7265616479206d696e74656400000000600082015250565b6000612f28601c83611e27565b9150612f3382612ef2565b602082019050919050565b60006020820190508181036000830152612f5781612f1b565b905091905056fea26469706673582212203bef0eea5f434afe791127b8e40dc26f93987eb9c04038db16a0a8073c589f2064736f6c63430008140033",
  "linkReferences": {},
  "deployedLinkReferences": {}
}